:100000000C942A000C9447000C9447000C94470071
:100010000C9447000C9447000C9447000C94470044
:100020000C9447000C9447000C9447000C94470034
:100030000C9447000C9447000C9447000C94470024
:100040000C9447000C9447000C9447000C94470014
:100050000C94470011241FBECFE5D8E0DEBFCDBF12
:1000600010E0A0E6B0E0EEEAF1E002C005900D92EB
:10007000A636B107D9F720E0A6E6B0E001C01D9290
:10008000A037B207E1F70E949D000C94D5000C94B4
:100090000000DC01CB01880F991FAA1FBB1F880F2E
:1000A000991FAA1FBB1F9C01AD01220F331F441FC4
:1000B000551F220F331F441F551F60E072E18AE76E
:1000C00090E00E94B3002150310930BD29B98AB1B6
:1000D00088618AB980B5866080BD08955D9BFECF3A
:1000E0008CB90895CF93DF93EC0103C00E946E009A
:1000F000219688818111FACFDF91CF9108955F9B7E
:10010000FECF8CB108950F931F93CF93DF938C0193
:10011000D62FC0E00BC00E947F00F801EC0FF11D4C
:1001200080838D3029F0882319F0CF5FCD1798F3A5
:10013000DF91CF911F910F91089560E875E280E003
:1001400090E00E94490080E690E00E9472006AE020
:1001500086E690E00E94830086E690E00E947200AE
:1001600080E090E00895A1E21A2EAA1BBB1BFD01BE
:100170000DC0AA1FBB1FEE1FFF1FA217B307E40786
:10018000F50720F0A21BB30BE40BF50B661F771FDE
:10019000881F991F1A9469F76095709580959095BE
:0E01A0009B01AC01BD01CF010895F894FFCF83
:0601AE0048656C6C6F0057
:00000001FF
