:100000000C942A000C943F000C943F000C943F0089
:100010000C943F000C943F000C943F000C943F0064
:100020000C943F000C943F000C943F000C943F0054
:100030000C943F000C943F000C943F000C943F0044
:100040000C943F000C943F000C943F000C943F0034
:100050000C943F0011241FBECFE5D8E0DEBFCDBF1A
:1000600010E0A0E6B0E0E8E9FAE002C005900D92E9
:10007000A23AB107D9F70E94F9010C944A050C94F1
:1000800000004F925F926F927F928F929F92AF92F9
:10009000BF92CF92DF92EF92FF920F931F93CF9375
:1000A000DF9300D000D0CDB7DEB729833A834B83EE
:1000B0005C83E21AF30A040B150B4F88588C698C89
:1000C0007A8CA30192012A193B094C095D096980C8
:1000D0007A808B809C8066197709880999090E942B
:1000E0008204A80197010E94C804C601B501620FED
:1000F000731F841F951F0F900F900F900F90DF912B
:10010000CF911F910F91FF90EF90DF90CF90BF9014
:10011000AF909F908F907F906F905F904F900895D9
:100120006150710920E030E00EC0DC01A20FB31F66
:100130004C91FC01E60FF71F50815C9340832F5FC9
:100140003F4F61507109261737077CF308950F93CD
:100150001F93CF93DF939B018A01C0E0D0E0FE01A3
:10016000E00FF11FE20FF31F6AE070E00E949204BB
:10017000805D8083862F972F2196009781F7BE019F
:10018000C901800F911F0E949000CE01DF91CF9195
:100190001F910F9108954F925F926F927F92AF924D
:1001A000BF92CF92DF92EF92FF920F931F93CF9364
:1001B000DF932B013C015A0189010E9451036B011D
:1001C0007C01072E000C880B990B0E9489039B0170
:1001D000AC01C301B2010E9472022B013C0140E05C
:1001E00050E0B501C6010E94A700EC010115110500
:1001F000A1F18EE2F501EC0FFD1F808320E030E0DD
:1002000040E251E4C301B2010E9415046B017C017C
:1002100021C0C701B6010E9451032196F501EC0FE0
:10022000FD1F20E3260F2083072E000C880B990B5F
:100230000E9489039B01AC01C701B6010E947202B2
:1002400020E030E040E251E40E9415046B017C01A3
:100250000150110910161106E4F22196CA0DDB1D9A
:100260001882DF91CF911F910F91FF90EF90DF9057
:10027000CF90BF90AF907F906F905F904F90089518
:10028000882319F0813041F00DC087B1806487B9AF
:1002900087B1806887B906C087B1806487B987B1A4
:1002A0008F7787B986B1876886B9089597B1907FAF
:1002B0008F70892B87B986B1806486B93699FECF55
:1002C00084B195B10895CF92DF92EF92FF926B01C6
:1002D0007C0188E18AB980B5866080BD8BB182607F
:1002E0008BB980B5806880BD80B590E1499FA00141
:1002F0001124482B40BD30B5822F90E0880F991F04
:10030000880F991F880F991F832B80BD80B5806847
:1003100080BD80B58F7B80BD89B18F7789B9D701CA
:10032000C601880F991FAA1FBB1F880F991FAA1FFC
:10033000BB1F9C01AD01220F331F441F551F60E0FE
:1003400072E18AE790E00E94A60429B9BB27A52F95
:10035000942F832F80BDFF90EF90DF90CF90089572
:100360005D9BFECF8CB90895CF93DF93EC0103C062
:1003700021960E94B00188818111FACFDF91CF913F
:100380000895CF93DF9300D000D000D0CDB7DEB773
:1003900021E030E0AE014F5F5F4F0E94CB00CE0105
:1003A00001960E94B40126960FB6F894DEBF0FBEE8
:1003B000CDBFDF91CF910895CF93DF93CDB7DEB757
:1003C0002A970FB6F894DEBF0FBECDBF4AE0BE013C
:1003D0006F5F7F4F0E941505CE0101960E94B40108
:1003E0002A960FB6F894DEBF0FBECDBFDF91CF9136
:1003F00008950E94080280E00E9418022FEF89E60B
:1004000098E1215080409040E1F700C00000F3CF18
:1004100020E040E060E875E280E090E00E94630147
:1004200080E690E00E94B40180E00E9440010895BF
:10043000AF92BF92CF92DF92EF92FF920F931F93F2
:10044000CF93C82F0E945601BC0180E090E01F921C
:100450001F921F921F920F2EF4E6AF2EF9E1BF2ECE
:10046000C12CD12CF02DEE24EA9413E0F12E00E003
:1004700010E022E330E040E050E00E9441000E94A2
:10048000890320E030E04AE754E40E94DF026B0178
:100490007C018DE690E00E94B401C701B6010E9484
:1004A000C1018AE790E00E94B4018FE790E00E94CA
:1004B000B4018C2F0E9456010E94DC018CE790E071
:1004C0000E94B4010F900F900F900F90C701B601DA
:1004D000CF911F910F91FF90EF90DF90CF90BF9041
:1004E000AF9008955058BB27AA270E948A020C9407
:1004F000DB030E94CD0338F00E94D40320F039F4CE
:100500009F3F19F426F40C94CA030EF4E095E7FB20
:100510000C94C403E92F0E94EC0358F3BA17620746
:1005200073078407950720F079F4A6F50C940E0460
:100530000EF4E0950B2EBA2FA02D0B01B9019001FE
:100540000C01CA01A0011124FF27591B99F0593F42
:1005500050F4503E68F11A16F040A22F232F342F8A
:100560004427585FF3CF469537952795A795F040D8
:100570005395C9F77EF41F16BA0B620B730B840BED
:10058000BAF09150A1F0FF0FBB1F661F771F881FA5
:10059000C2F70EC0BA0F621F731F841F48F48795FD
:1005A00077956795B795F7959E3F08F0B0CF9395EF
:1005B000880F08F09927EE0F9795879508950E9468
:1005C000F3020C94DB030E94D40358F00E94CD0385
:1005D00040F029F45F3F29F00C94C40351110C94AE
:1005E0000F040C94CA030E94EC0368F39923B1F33F
:1005F000552391F3951B550BBB27AA276217730749
:10060000840738F09F5F5F4F220F331F441FAA1FDC
:10061000A9F335D00E2E3AF0E0E832D09150504098
:10062000E695001CCAF72BD0FE2F29D0660F771F46
:10063000881FBB1F261737074807AB07B0E809F02C
:10064000BB0B802DBF01FF2793585F4F3AF09E3FB1
:10065000510578F00C94C4030C940F045F3FE4F34D
:10066000983ED4F3869577956795B795F7959F5FF4
:10067000C9F7880F911D9695879597F90895E1E040
:10068000660F771F881FBB1F621773078407BA079F
:1006900020F0621B730B840BBA0BEE1F88F7E095FA
:1006A00008950E9458036894B1110C940F040895A2
:1006B0000E94F40388F09F5798F0B92F9927B751FB
:1006C000B0F0E1F0660F771F881F991F1AF0BA95F6
:1006D000C9F714C0B13091F00E940E04B1E0089542
:1006E0000C940E04672F782F8827B85F39F0B93F34
:1006F000CCF3869577956795B395D9F73EF49095A9
:100700008095709561957F4F8F4F9F4F0895E89426
:1007100009C097FB3EF490958095709561957F4F49
:100720008F4F9F4F9923A9F0F92F96E9BB279395F7
:10073000F695879577956795B795F111F8CFFAF407
:10074000BB0F11F460FF1BC06F5F7F4F8F4F9F4F38
:1007500016C0882311F096E911C0772321F09EE896
:10076000872F762F05C0662371F096E8862F70E0FC
:1007700060E02AF09A95660F771F881FDAF7880FD6
:100780009695879597F9089597F99F6780E870E0A7
:1007900060E008959FEF80EC089500240A941616F7
:1007A000170618060906089500240A94121613065F
:1007B000140605060895092E0394000C11F48823ED
:1007C00052F0BB0F40F4BF2B11F460FF04C06F5F09
:1007D0007F4F8F4F9F4F089557FD9058440F551FDF
:1007E00059F05F3F71F04795880F97FB991F61F0B3
:1007F0009F3F79F087950895121613061406551F2A
:10080000F2CF4695F1DF08C0161617061806991F95
:10081000F1CF86957105610508940895E894BB278A
:1008200066277727CB0197F908950E9428040C9436
:10083000DB030E94CD0338F00E94D40320F09523FF
:1008400011F00C94C4030C94CA0311240C940F04EB
:100850000E94EC0370F3959FC1F3950F50E0551F74
:10086000629FF001729FBB27F00DB11D639FAA2705
:10087000F00DB11DAA1F649F6627B00DA11D661F54
:10088000829F2227B00DA11D621F739FB00DA11D75
:10089000621F839FA00D611D221F749F3327A00D2F
:1008A000611D231F849F600D211D822F762F6A2FCB
:1008B00011249F5750409AF0F1F088234AF0EE0F30
:1008C000FF1FBB1F661F771F881F91505040A9F75D
:1008D0009E3F510580F00C94C4030C940F045F3FBD
:1008E000E4F3983ED4F3869577956795B795F79599
:1008F000E7959F5FC1F7FE2B880F911D9695879511
:1009000097F90895DB018F939F930E94E704BF91AD
:10091000AF91A29F800D911DA39F900DB29F900D4E
:100920001124089597FB072E16F4009407D077FD45
:1009300009D00E94F20407FC05D03EF49095819501
:100940009F4F0895709561957F4F0895A1E21A2EEB
:10095000AA1BBB1BFD010DC0AA1FBB1FEE1FFF1F63
:10096000A217B307E407F50720F0A21BB30BE40BB3
:10097000F50B661F771F881F991F1A9469F76095FA
:100980007095809590959B01AC01BD01CF010895B4
:10099000052E97FB1EF400940E94DF0457FD07D03C
:1009A0000E94A60407FC03D04EF40C94DF0450957B
:1009B0004095309521953F4F4F4F5F4F089590954B
:1009C0008095709561957F4F8F4F9F4F08950E943E
:1009D0000605A59F900DB49F900DA49F800D911DBD
:1009E00011240895AA1BBB1B51E107C0AA1FBB1FFE
:1009F000A617B70710F0A61BB70B881F991F5A95AB
:100A0000A9F780959095BC01CD010895A29FB001F2
:100A1000B39FC001A39F700D811D1124911DB29F32
:100A2000700D811D1124911D0895BB274A3031F4AA
:100A3000992322F4BDE2909581959F4F0C94210556
:100A4000BB27FB015527AA27880F991FAA1FA417A8
:100A500010F0A41B83955051B9F7A05DAA3308F09C
:100A6000A95DA193009779F7B111B1931192CB01D0
:100A70000C943A05DC01FC01672F71917723E1F7B3
:100A8000329704C07C916D9370836291AE17BF075B
:080A9000C8F30895F894FFCFAC
:100A98005541525420424547494E0D0A0046756556
:100AA8006C204C6576656C3A2000204C0D0A00419C
:100AB80044432076616C756520666F7220667565A3
:100AC8006C206C6576656C2073656E736F723A2066
:020AD80000001C
:00000001FF
