:100000000C942A000C9447000C9447000C94470071
:100010000C9447000C9447000C9447000C94470044
:100020000C9447000C9447000C9447000C94470034
:100030000C9447000C9447000C9447000C94470024
:100040000C9447000C9447000C9447000C94470014
:100050000C94470011241FBECFE5D8E0DEBFCDBF12
:1000600010E0A0E6B0E0E6E5F4E002C005900D92F5
:10007000A436B107D9F720E0A4E6B0E001C01D9294
:10008000A636B207E1F70E9445010C9429020C94B0
:1000900000001ABA86B1876086B986B1806886B9D1
:1000A000089587B987B1806487B987B18F7D87B993
:1000B00086B1806486B9349BFECF86B1806186B9F3
:1000C00024B185B190E0982F8827822B0895613064
:1000D000A1F5982F969596959695913091F018F0F8
:1000E0009230E9F0089547B3877021E030E0B9011C
:1000F00002C0660F771F8A95E2F7CB01842B87BB7E
:10010000089544B3877021E030E0B90102C0660F62
:10011000771F8A95E2F7CB01842B84BB089541B306
:10012000877021E030E0B90102C0660F771F8A9521
:10013000E2F7CB01842B81BB0895611136C0982F63
:10014000969596959695913099F018F09230F9F031
:10015000089547B3877021E030E0B90102C0660F0F
:10016000771F8A95E2F7CB018095842387BB08959A
:1001700044B3877021E030E0B90102C0660F771FF9
:100180008A95E2F7CB018095842384BB089541B31F
:10019000877021E030E0B90102C0660F771F8A95B1
:1001A000E2F7CB018095842381BB08956130A1F5EE
:1001B000982F969596959695913091F018F09230EB
:1001C000E9F0089548B3877021E030E0B90102C03A
:1001D000660F771F8A95E2F7CB01842B88BB0895C1
:1001E00045B3877021E030E0B90102C0660F771F88
:1001F0008A95E2F7CB01842B85BB089542B38770C3
:1002000021E030E0B90102C0660F771F8A95E2F75E
:10021000CB01842B82BB0895611136C0982F96952F
:1002200096959695913099F018F09230F9F00895DE
:1002300048B3877021E030E0B90102C0660F771F34
:100240008A95E2F7CB018095842388BB089545B356
:10025000877021E030E0B90102C0660F771F8A95F0
:10026000E2F7CB018095842385BB089542B3877064
:1002700021E030E0B90102C0660F771F8A95E2F7EE
:10028000CB018095842382BB089561E083E10E94C5
:10029000670081E090E00E94490060E875E280E03C
:1002A00090E00E947F0180E00E94510090936500E1
:1002B0008093640061E083E10E94D6008091640035
:1002C000909165000E94B50180E690E00E94A8012F
:1002D0002FEF84E39CE0215080409040E1F700C084
:1002E000000060E083E10E94D6002FEF84E39CE0F1
:1002F000215080409040E1F700C00000D4CFDC01E5
:10030000CB01880F991FAA1FBB1F880F991FAA1F17
:10031000BB1F9C01AD01220F331F441F551F220F2D
:10032000331F441F551F60E072E18AE790E00E948E
:10033000D2012150310930BD29B98AB188618AB909
:1003400080B5866880BD08955D9BFECF8CB9089509
:10035000CF93DF93EC0103C00E94A4012196888112
:100360008111FACFDF91CF910895CF93DF93CDB76D
:10037000DEB72A970FB6F894DEBF0FBECDBF4AE0B6
:10038000BE016F5F7F4F0E94F401CE0101960E9473
:10039000A8012A960FB6F894DEBF0FBECDBFDF913D
:1003A000CF910895A1E21A2EAA1BBB1BFD010DC01F
:1003B000AA1FBB1FEE1FFF1FA217B307E407F50715
:1003C00020F0A21BB30BE40BF50B661F771F881FF1
:1003D000991F1A9469F760957095809590959B0187
:1003E000AC01BD01CF010895BB274A3031F49923F8
:1003F00022F4BDE2909581959F4F0C940002BB279B
:10040000FB015527AA27880F991FAA1FA41710F0D0
:10041000A41B83955051B9F7A05DAA3308F0A95DDC
:10042000A193009779F7B111B1931192CB010C947C
:100430001902DC01FC01672F71917723E1F73297F4
:1004400004C07C916D9370836291AE17BF07C8F3AF
:060450000895F894FFCFAF
:040456000D0A00008B
:00000001FF
